{
  "contractName": "Buy_token",
  "abi": [
    {
      "inputs": [
        {
          "internalType": "address",
          "name": "_tokenAddress",
          "type": "address"
        }
      ],
      "stateMutability": "nonpayable",
      "type": "constructor"
    },
    {
      "anonymous": false,
      "inputs": [
        {
          "indexed": false,
          "internalType": "uint256",
          "name": "OrderID",
          "type": "uint256"
        },
        {
          "indexed": false,
          "internalType": "uint256",
          "name": "ClaimTime",
          "type": "uint256"
        }
      ],
      "name": "OrderClaimed",
      "type": "event"
    },
    {
      "anonymous": false,
      "inputs": [
        {
          "indexed": false,
          "internalType": "uint256",
          "name": "OrderID",
          "type": "uint256"
        },
        {
          "indexed": false,
          "internalType": "uint256",
          "name": "BuyTime",
          "type": "uint256"
        }
      ],
      "name": "OrderPlaced",
      "type": "event"
    },
    {
      "inputs": [
        {
          "internalType": "uint256",
          "name": "",
          "type": "uint256"
        }
      ],
      "name": "orderBook",
      "outputs": [
        {
          "internalType": "address",
          "name": "Buyer",
          "type": "address"
        },
        {
          "internalType": "uint256",
          "name": "Amount",
          "type": "uint256"
        },
        {
          "internalType": "bool",
          "name": "is_Claimed",
          "type": "bool"
        },
        {
          "internalType": "uint256",
          "name": "claimTime",
          "type": "uint256"
        }
      ],
      "stateMutability": "view",
      "type": "function",
      "constant": true
    },
    {
      "inputs": [
        {
          "internalType": "uint256",
          "name": "",
          "type": "uint256"
        }
      ],
      "name": "user",
      "outputs": [
        {
          "internalType": "address payable",
          "name": "",
          "type": "address"
        }
      ],
      "stateMutability": "view",
      "type": "function",
      "constant": true
    },
    {
      "stateMutability": "payable",
      "type": "receive",
      "payable": true
    },
    {
      "inputs": [
        {
          "internalType": "uint256",
          "name": "_amount",
          "type": "uint256"
        }
      ],
      "name": "buyTokens",
      "outputs": [],
      "stateMutability": "payable",
      "type": "function",
      "payable": true
    },
    {
      "inputs": [
        {
          "internalType": "uint256",
          "name": "_orderId",
          "type": "uint256"
        }
      ],
      "name": "claim",
      "outputs": [],
      "stateMutability": "nonpayable",
      "type": "function"
    },
    {
      "inputs": [
        {
          "internalType": "uint256",
          "name": "_orderId",
          "type": "uint256"
        }
      ],
      "name": "isClaimable",
      "outputs": [
        {
          "internalType": "bool",
          "name": "",
          "type": "bool"
        }
      ],
      "stateMutability": "view",
      "type": "function",
      "constant": true
    },
    {
      "inputs": [
        {
          "internalType": "uint256",
          "name": "_orderId",
          "type": "uint256"
        }
      ],
      "name": "isClaimed",
      "outputs": [
        {
          "internalType": "bool",
          "name": "",
          "type": "bool"
        }
      ],
      "stateMutability": "view",
      "type": "function",
      "constant": true
    },
    {
      "inputs": [
        {
          "internalType": "address",
          "name": "_user",
          "type": "address"
        },
        {
          "internalType": "uint256",
          "name": "_orderId",
          "type": "uint256"
        }
      ],
      "name": "isClaimer",
      "outputs": [
        {
          "internalType": "bool",
          "name": "",
          "type": "bool"
        }
      ],
      "stateMutability": "view",
      "type": "function",
      "constant": true
    },
    {
      "inputs": [
        {
          "internalType": "address",
          "name": "_user",
          "type": "address"
        }
      ],
      "name": "getUserData",
      "outputs": [
        {
          "components": [
            {
              "internalType": "address",
              "name": "Buyer",
              "type": "address"
            },
            {
              "internalType": "uint256",
              "name": "Amount",
              "type": "uint256"
            },
            {
              "internalType": "bool",
              "name": "is_Claimed",
              "type": "bool"
            },
            {
              "internalType": "uint256",
              "name": "claimTime",
              "type": "uint256"
            }
          ],
          "internalType": "struct Buy_token.Order[]",
          "name": "",
          "type": "tuple[]"
        }
      ],
      "stateMutability": "view",
      "type": "function",
      "constant": true
    },
    {
      "inputs": [],
      "name": "value",
      "outputs": [
        {
          "internalType": "uint256",
          "name": "",
          "type": "uint256"
        }
      ],
      "stateMutability": "payable",
      "type": "function",
      "payable": true
    },
    {
      "inputs": [],
      "name": "ViewToken",
      "outputs": [
        {
          "internalType": "uint256",
          "name": "",
          "type": "uint256"
        }
      ],
      "stateMutability": "view",
      "type": "function",
      "constant": true
    }
  ],
  "bytecode": "0x608060405230600160006101000a81548173ffffffffffffffffffffffffffffffffffffffff021916908373ffffffffffffffffffffffffffffffffffffffff160217905550600160055560016006553480156200005c57600080fd5b506040516200155238038062001552833981810160405281019062000082919062000133565b806000806101000a81548173ffffffffffffffffffffffffffffffffffffffff021916908373ffffffffffffffffffffffffffffffffffffffff1602179055505062000165565b600080fd5b600073ffffffffffffffffffffffffffffffffffffffff82169050919050565b6000620000fb82620000ce565b9050919050565b6200010d81620000ee565b81146200011957600080fd5b50565b6000815190506200012d8162000102565b92915050565b6000602082840312156200014c576200014b620000c9565b5b60006200015c848285016200011c565b91505092915050565b6113dd80620001756000396000f3fe6080604052600436106100955760003560e01c80638a3eb3c4116100595780638a3eb3c4146101f55780639e34070f14610232578063a20b6e341461026f578063cd65bb67146102af578063ffc9896b146102da57610113565b80633610724e14610118578063379607f5146101345780633fa4f2451461015d578063553275be1461017b57806389610a09146101b857610113565b3661011357670de0b6b3a76400003410156100af57600080fd5b6002339080600181540180825580915050600190039060005260206000200160009091909190916101000a81548173ffffffffffffffffffffffffffffffffffffffff021916908373ffffffffffffffffffffffffffffffffffffffff1602179055005b600080fd5b610132600480360381019061012d9190610c72565b610317565b005b34801561014057600080fd5b5061015b60048036038101906101569190610c72565b61066f565b005b6101656108a4565b6040516101729190610cae565b60405180910390f35b34801561018757600080fd5b506101a2600480360381019061019d9190610c72565b6108bf565b6040516101af9190610d0a565b60405180910390f35b3480156101c457600080fd5b506101df60048036038101906101da9190610c72565b6108fe565b6040516101ec9190610d40565b60405180910390f35b34801561020157600080fd5b5061021c60048036038101906102179190610d99565b610931565b6040516102299190610d40565b60405180910390f35b34801561023e57600080fd5b5061025960048036038101906102549190610c72565b6109b0565b6040516102669190610d40565b60405180910390f35b34801561027b57600080fd5b5061029660048036038101906102919190610c72565b6109f3565b6040516102a69493929190610de8565b60405180910390f35b3480156102bb57600080fd5b506102c4610a50565b6040516102d19190610cae565b60405180910390f35b3480156102e657600080fd5b5061030160048036038101906102fc9190610e2d565b610b14565b60405161030e9190610f8b565b60405180910390f35b8060008054906101000a900473ffffffffffffffffffffffffffffffffffffffff1673ffffffffffffffffffffffffffffffffffffffff166370a08231600160009054906101000a900473ffffffffffffffffffffffffffffffffffffffff166040518263ffffffff1660e01b81526004016103939190610fad565b602060405180830381865afa1580156103b0573d6000803e3d6000fd5b505050506040513d601f19601f820116820180604052508101906103d49190610fdd565b1015610415576040517f08c379a000000000000000000000000000000000000000000000000000000000815260040161040c90611067565b60405180910390fd5b60405180608001604052803373ffffffffffffffffffffffffffffffffffffffff168152602001828152602001600015158152602001603c4261045891906110b6565b81525060036000600654815260200190815260200160002060008201518160000160006101000a81548173ffffffffffffffffffffffffffffffffffffffff021916908373ffffffffffffffffffffffffffffffffffffffff1602179055506020820151816001015560408201518160020160006101000a81548160ff02191690831515021790555060608201518160030155905050600460003373ffffffffffffffffffffffffffffffffffffffff1673ffffffffffffffffffffffffffffffffffffffff16815260200190815260200160002060405180608001604052803373ffffffffffffffffffffffffffffffffffffffff168152602001838152602001600015158152602001603c4261057091906110b6565b815250908060018154018082558091505060019003906000526020600020906004020160009091909190915060008201518160000160006101000a81548173ffffffffffffffffffffffffffffffffffffffff021916908373ffffffffffffffffffffffffffffffffffffffff1602179055506020820151816001015560408201518160020160006101000a81548160ff0219169083151502179055506060820151816003015550507fd2c5bfb6bce70df9ca34993c14f0558fa1ee01713c7cf98de5c90dd033cdb85e6006544260405161064c9291906110ea565b60405180910390a16006600081548092919061066790611113565b919050555050565b6106793382610931565b6106b8576040517f08c379a00000000000000000000000000000000000000000000000000000000081526004016106af906111cd565b60405180910390fd5b6106c1816109b0565b610700576040517f08c379a00000000000000000000000000000000000000000000000000000000081526004016106f790611239565b60405180910390fd5b610709816108fe565b610748576040517f08c379a000000000000000000000000000000000000000000000000000000000815260040161073f906112a5565b60405180910390fd5b60008054906101000a900473ffffffffffffffffffffffffffffffffffffffff1673ffffffffffffffffffffffffffffffffffffffff1663a9059cbb6003600084815260200190815260200160002060000160009054906101000a900473ffffffffffffffffffffffffffffffffffffffff1660036000858152602001908152602001600020600101546040518363ffffffff1660e01b81526004016107ef9291906112c5565b6020604051808303816000875af115801561080e573d6000803e3d6000fd5b505050506040513d601f19601f82011682018060405250810190610832919061131a565b50600060036000838152602001908152602001600020905060018160020160006101000a81548160ff0219169083151502179055507f8aa7b75a6f77002436c80c534f692ac27f3ac8510cca43c7c83fafa3ec50635a82426040516108989291906110ea565b60405180910390a15050565b6000670de0b6b3a7640000346108ba9190611376565b905090565b600281815481106108cf57600080fd5b906000526020600020016000915054906101000a900473ffffffffffffffffffffffffffffffffffffffff1681565b60004260036000848152602001908152602001600020600301541015610927576001905061092c565b600090505b919050565b60008273ffffffffffffffffffffffffffffffffffffffff166003600084815260200190815260200160002060000160009054906101000a900473ffffffffffffffffffffffffffffffffffffffff1673ffffffffffffffffffffffffffffffffffffffff16036109a557600190506109aa565b600090505b92915050565b60008015156003600084815260200190815260200160002060020160009054906101000a900460ff161515036109e957600190506109ee565b600090505b919050565b60036020528060005260406000206000915090508060000160009054906101000a900473ffffffffffffffffffffffffffffffffffffffff16908060010154908060020160009054906101000a900460ff16908060030154905084565b60008060009054906101000a900473ffffffffffffffffffffffffffffffffffffffff1673ffffffffffffffffffffffffffffffffffffffff166370a08231600160009054906101000a900473ffffffffffffffffffffffffffffffffffffffff166040518263ffffffff1660e01b8152600401610ace9190610fad565b602060405180830381865afa158015610aeb573d6000803e3d6000fd5b505050506040513d601f19601f82011682018060405250810190610b0f9190610fdd565b905090565b6060600460008373ffffffffffffffffffffffffffffffffffffffff1673ffffffffffffffffffffffffffffffffffffffff168152602001908152602001600020805480602002602001604051908101604052809291908181526020016000905b82821015610c2c57838290600052602060002090600402016040518060800160405290816000820160009054906101000a900473ffffffffffffffffffffffffffffffffffffffff1673ffffffffffffffffffffffffffffffffffffffff1673ffffffffffffffffffffffffffffffffffffffff168152602001600182015481526020016002820160009054906101000a900460ff1615151515815260200160038201548152505081526020019060010190610b75565b505050509050919050565b600080fd5b6000819050919050565b610c4f81610c3c565b8114610c5a57600080fd5b50565b600081359050610c6c81610c46565b92915050565b600060208284031215610c8857610c87610c37565b5b6000610c9684828501610c5d565b91505092915050565b610ca881610c3c565b82525050565b6000602082019050610cc36000830184610c9f565b92915050565b600073ffffffffffffffffffffffffffffffffffffffff82169050919050565b6000610cf482610cc9565b9050919050565b610d0481610ce9565b82525050565b6000602082019050610d1f6000830184610cfb565b92915050565b60008115159050919050565b610d3a81610d25565b82525050565b6000602082019050610d556000830184610d31565b92915050565b6000610d6682610cc9565b9050919050565b610d7681610d5b565b8114610d8157600080fd5b50565b600081359050610d9381610d6d565b92915050565b60008060408385031215610db057610daf610c37565b5b6000610dbe85828601610d84565b9250506020610dcf85828601610c5d565b9150509250929050565b610de281610d5b565b82525050565b6000608082019050610dfd6000830187610dd9565b610e0a6020830186610c9f565b610e176040830185610d31565b610e246060830184610c9f565b95945050505050565b600060208284031215610e4357610e42610c37565b5b6000610e5184828501610d84565b91505092915050565b600081519050919050565b600082825260208201905092915050565b6000819050602082019050919050565b610e8f81610d5b565b82525050565b610e9e81610c3c565b82525050565b610ead81610d25565b82525050565b608082016000820151610ec96000850182610e86565b506020820151610edc6020850182610e95565b506040820151610eef6040850182610ea4565b506060820151610f026060850182610e95565b50505050565b6000610f148383610eb3565b60808301905092915050565b6000602082019050919050565b6000610f3882610e5a565b610f428185610e65565b9350610f4d83610e76565b8060005b83811015610f7e578151610f658882610f08565b9750610f7083610f20565b925050600181019050610f51565b5085935050505092915050565b60006020820190508181036000830152610fa58184610f2d565b905092915050565b6000602082019050610fc26000830184610dd9565b92915050565b600081519050610fd781610c46565b92915050565b600060208284031215610ff357610ff2610c37565b5b600061100184828501610fc8565b91505092915050565b600082825260208201905092915050565b7f496e73756666696369616e7420546f6b656e7320000000000000000000000000600082015250565b600061105160148361100a565b915061105c8261101b565b602082019050919050565b6000602082019050818103600083015261108081611044565b9050919050565b7f4e487b7100000000000000000000000000000000000000000000000000000000600052601160045260246000fd5b60006110c182610c3c565b91506110cc83610c3c565b92508282019050808211156110e4576110e3611087565b5b92915050565b60006040820190506110ff6000830185610c9f565b61110c6020830184610c9f565b9392505050565b600061111e82610c3c565b91507fffffffffffffffffffffffffffffffffffffffffffffffffffffffffffffffff82036111505761114f611087565b5b600182019050919050565b7f596f7520617265206e6f7420746865204275796572206f662074686973206f7260008201527f6465720000000000000000000000000000000000000000000000000000000000602082015250565b60006111b760238361100a565b91506111c28261115b565b604082019050919050565b600060208201905081810360008301526111e6816111aa565b9050919050565b7f546f6b656e732061726520616c726561647920436c61696d6564000000000000600082015250565b6000611223601a8361100a565b915061122e826111ed565b602082019050919050565b6000602082019050818103600083015261125281611216565b9050919050565b7f596f752063616e277420436c61696d20546f6b656e73204e6f77000000000000600082015250565b600061128f601a8361100a565b915061129a82611259565b602082019050919050565b600060208201905081810360008301526112be81611282565b9050919050565b60006040820190506112da6000830185610dd9565b6112e76020830184610c9f565b9392505050565b6112f781610d25565b811461130257600080fd5b50565b600081519050611314816112ee565b92915050565b6000602082840312156113305761132f610c37565b5b600061133e84828501611305565b91505092915050565b7f4e487b7100000000000000000000000000000000000000000000000000000000600052601260045260246000fd5b600061138182610c3c565b915061138c83610c3c565b92508261139c5761139b611347565b5b82820490509291505056fea26469706673582212200bc4e69cc1ed157361ef282aa6efc3c62ff8a67d8fb89b35eb0ad7cb3d48246464736f6c63430008110033",
  "immutableReferences": {},
  "source": "//SPDX-License-Identifier: MIT\n\npragma solidity ^0.8.4;\n\nimport \"./import_token.sol\";\nimport \"@openzeppelin/contracts/utils/math/SafeMath.sol\";\nimport \"@openzeppelin/contracts/token/ERC20/ERC20.sol\";\n\ncontract Buy_token {\n    using SafeMath for uint;\n    import_token Token;\n    address _ad=address(this);\n    address payable[] public user;\n    struct Order{\n        address Buyer;\n        uint Amount;\n        bool is_Claimed;\n        uint claimTime; \n    }\n\n    mapping(uint=>Order) public orderBook;\n    mapping(address=>Order[]) userData;\n    uint tokenPrice = 1;\n    uint orderId = 1;\n\n    event OrderPlaced(uint OrderID, uint BuyTime);\n    event OrderClaimed(uint OrderID, uint ClaimTime);\n    constructor(address _tokenAddress) {\n        Token = import_token(_tokenAddress);\n    }\n\n    function buyTokens(uint _amount) public payable {\n        // require((msg.value/(1 ether))*100==_amount.mul(tokenPrice),\"Insufficiant Paid amount\");\n        require(Token.balanceOf(_ad)>=_amount,\"Insufficiant Tokens \");\n        orderBook[orderId] = Order(msg.sender,_amount,false,block.timestamp+60);\n        userData[msg.sender].push(Order(msg.sender,_amount,false,block.timestamp+60));\n        emit OrderPlaced(orderId,block.timestamp);\n        orderId++;\n    }\n\n    function claim(uint _orderId) public {\n        require(isClaimer(msg.sender, _orderId),\"You are not the Buyer of this order\");\n        require(isClaimed(_orderId),\"Tokens are already Claimed\");\n        require(isClaimable(_orderId),\"You can't Claim Tokens Now\");\n        Token.transfer(orderBook[_orderId].Buyer,orderBook[_orderId].Amount);\n        Order storage user1 = orderBook[_orderId];\n        user1.is_Claimed = true;\n        emit OrderClaimed(_orderId,block.timestamp);\n    }\n\n    function isClaimable(uint _orderId) public view returns(bool){\n        if(orderBook[_orderId].claimTime <block.timestamp){\n            return true;\n        }\n        return false;\n    }\n\n    function isClaimed(uint _orderId) public view returns(bool) {\n        if(orderBook[_orderId].is_Claimed==false){\n            return true;\n        }\n        return false;\n    }\n\n    function isClaimer(address _user, uint _orderId) public view returns(bool) {\n        if(orderBook[_orderId].Buyer==_user){\n            return true;\n        }\n        return false;\n    } \n    function getUserData(address _user) public view returns(Order[] memory){\n        return userData[_user];\n    }\n\n    receive() external payable\n    {   \n        require(msg.value>=1 ether);\n        user.push(payable(msg.sender));\n    }\n\n    function value() payable public  returns(uint){\n        return msg.value/(1 ether);\n    }\n\n    function ViewToken() public view returns(uint){\n        return Token.balanceOf(_ad);\n    }\n}",
  "sourcePath": "/home/hp/Documents/blockchain/Truffle/Demo/contracts/Buy_token.sol",
  "compiler": {
    "name": "solc",
    "version": "0.8.17+commit.8df45f5f.Emscripten.clang"
  },
  "schemaVersion": "3.4.11",
  "updatedAt": "2023-01-23T11:09:43.373Z",
  "networkType": "ethereum",
  "devdoc": {
    "kind": "dev",
    "methods": {},
    "version": 1
  },
  "userdoc": {
    "kind": "user",
    "methods": {},
    "version": 1
  }
}